:100000000C942A000C9434000C9434000C943400AA
:100010000C9434000C9434000C9434000C94340090
:100020000C9434000C9434000C9434000C94340080
:100030000C9434000C9434000C9434000C94340070
:100040000C9434000C9434000C9436000C9434005E
:100050000C94340011241FBECFE5D8E0DEBFCDBF25
:100060000E9448000C9456000C9400001F920F92BE
:100070000FB60F9211248F939F938BB391E0892732
:100080008BBB9F918F910F900FBE0F901F90189573
:10009000D09A18B888B18A6088B97894FFCFD09A7E
:1000A000089518B888B18A6088B90895F894FFCF88
:00000001FF
